{
  "sourcePath": "/Users/jamesl/Google Drive/oasis/taptrust-wallet-contracts/contracts/ConvertLib.sol",
  "source": "pragma solidity ^0.4.16;\n\nlibrary ConvertLib {\n  function convert(uint amount, uint conversionRate) public pure returns (uint convertedAmount)\n  {\n    return amount * conversionRate;\n  }\n}\n",
  "abi": [
    {
      "constant": true,
      "inputs": [
        {
          "name": "amount",
          "type": "uint256"
        },
        {
          "name": "conversionRate",
          "type": "uint256"
        }
      ],
      "name": "convert",
      "outputs": [
        {
          "name": "convertedAmount",
          "type": "uint256"
        }
      ],
      "payable": false,
      "stateMutability": "pure",
      "type": "function"
    }
  ],
  "bytecode": "0x60d061002f600b82828239805160001a6073146000811461001f57610021565bfe5b5030600052607381538281f30073000000000000000000000000000000000000000030146080604052600436106056576000357c0100000000000000000000000000000000000000000000000000000000900463ffffffff16806396e4ee3d14605b575b600080fd5b608160048036038101908080359060200190929190803590602001909291905050506097565b6040518082815260200191505060405180910390f35b60008183029050929150505600a165627a7a7230582096569a857fa7bf7acbc8f4651f109f63a9d67743b004f8154231e0aaed5fd2f60029",
  "compiler": {
    "name": "solc",
    "version": "0.4.25+commit.59dbf8f1.Emscripten.clang"
  },
  "contractName": "ConvertLib"
}