{
  "sourcePath": "/Users/jamesl/Google Drive/oasis/taptrust-wallet-contracts/contracts/ECRecovery.sol",
  "source": "pragma solidity ^0.4.24;\n\n/**\n* @title Elliptic curve signature operations.\n* @dev Based on https://gist.github.com/axic/5b33912c6f61ae6fd96d6c4a47afde6d\n* See https://github.com/ethereum/solidity/issues/864\n*/\nlibrary ECRecovery {\n\n  /**\n   * @dev Recover signer address from a message by using their signature.\n   * @param _hash bytes32 message, the hash is the signed message. What is recovered is the signer address.\n   * @param _sig bytes signature, the signature is generated using web3.eth.sign().\n   * @return address Recovered signed address\n   */\n  function recover(bytes32 _hash, bytes _sig) public pure returns (address) {\n    bytes32 r;\n    bytes32 s;\n    uint8 v;\n    // Check the signature length\n    if (_sig.length != 65) {\n      return (address(0));\n    }\n\n    // Divide the signature in r, s and v variables.\n    // ecrecover takes the signature parameters, and the only way to get them.\n    // currently is to use assembly.\n    // solium-disable-next-line security/no-inline-assembly.\n    assembly {\n      r := mload(add(_sig, 32))\n      s := mload(add(_sig, 64))\n      v := byte(0, mload(add(_sig, 96)))\n    }\n    // Version of signature should be 27 or 28, but 0 and 1 are also possible versions\n    if (v < 27) {\n      v += 27;\n    }\n    // If the version is correct return the signer address\n    if (v != 27 && v != 28) {\n      return (address(0));\n    } else {\n      // solium-disable-next-line arg-overflow\n      return ecrecover(_hash, v, r, s);\n    }\n  }\n\n  /**\n   * @dev toEthSignedMessageHash, prefix a bytes32 value with \"\\x19Ethereum Signed Message:\"\n   * and hash the result.\n   * @param _hash bytes32 Hashed message which needs to be eth singed.\n   * @return butes32 Encoded message.\n   */\n  function toEthSignedMessageHash(bytes32 _hash) public pure returns (bytes32) {\n    // 32 is the length in bytes of hash,\n    // enforced by the type signature above\n    return keccak256(\n      abi.encodePacked(\"\\x19Ethereum Signed Message:\\n32\", _hash)\n    );\n  }\n}\n",
  "abi": [
    {
      "constant": true,
      "inputs": [
        {
          "name": "_hash",
          "type": "bytes32"
        },
        {
          "name": "_sig",
          "type": "bytes"
        }
      ],
      "name": "recover",
      "outputs": [
        {
          "name": "",
          "type": "address"
        }
      ],
      "payable": false,
      "stateMutability": "pure",
      "type": "function"
    },
    {
      "constant": true,
      "inputs": [
        {
          "name": "_hash",
          "type": "bytes32"
        }
      ],
      "name": "toEthSignedMessageHash",
      "outputs": [
        {
          "name": "",
          "type": "bytes32"
        }
      ],
      "payable": false,
      "stateMutability": "pure",
      "type": "function"
    }
  ],
  "bytecode": "0x610331610030600b82828239805160001a6073146000811461002057610022565bfe5b5030600052607381538281f3007300000000000000000000000000000000000000003014608060405260043610610063576000357c0100000000000000000000000000000000000000000000000000000000900463ffffffff16806319045a2514610068578063918a15cf14610112575b600080fd5b6100d06004803603810190808035600019169060200190929190803590602001908201803590602001908080601f0160208091040260200160405190810160405280939291908181526020018383808284378201915050505050509192919290505050610152565b604051808273ffffffffffffffffffffffffffffffffffffffff1673ffffffffffffffffffffffffffffffffffffffff16815260200191505060405180910390f35b610134600480360381019080803560001916906020019092919050505061024a565b60405180826000191660001916815260200191505060405180910390f35b6000806000806041855114151561016c5760009350610241565b6020850151925060408501519150606085015160001a9050601b8160ff16101561019757601b810190505b601b8160ff16141580156101af5750601c8160ff1614155b156101bd5760009350610241565b600186828585604051600081526020016040526040518085600019166000191681526020018460ff1660ff1681526020018360001916600019168152602001826000191660001916815260200194505050505060206040516020810390808403906000865af1158015610234573d6000803e3d6000fd5b5050506020604051035193505b50505092915050565b60008160405160200180807f19457468657265756d205369676e6564204d6573736167653a0a333200000000815250601c0182600019166000191681526020019150506040516020818303038152906040526040518082805190602001908083835b6020831015156102d157805182526020820191506020810190506020830392506102ac565b6001836020036101000a038019825116818451168082178552505050505050905001915050604051809103902090509190505600a165627a7a72305820240d2996e91e17afd6cc2067e49d4d5de934d7ad689b6419cf432a86610728d70029",
  "compiler": {
    "name": "solc",
    "version": "0.4.25+commit.59dbf8f1.Emscripten.clang"
  },
  "contractName": "ECRecovery"
}